{
  "contractName": "Library",
  "abi": [
    {
      "inputs": [],
      "payable": false,
      "stateMutability": "nonpayable",
      "type": "constructor"
    },
    {
      "constant": true,
      "inputs": [],
      "name": "bookCount",
      "outputs": [
        {
          "internalType": "uint256",
          "name": "",
          "type": "uint256"
        }
      ],
      "payable": false,
      "stateMutability": "view",
      "type": "function"
    },
    {
      "constant": true,
      "inputs": [
        {
          "internalType": "uint256",
          "name": "",
          "type": "uint256"
        }
      ],
      "name": "books",
      "outputs": [
        {
          "internalType": "uint256",
          "name": "id",
          "type": "uint256"
        },
        {
          "internalType": "address",
          "name": "borrower",
          "type": "address"
        }
      ],
      "payable": false,
      "stateMutability": "view",
      "type": "function"
    },
    {
      "constant": false,
      "inputs": [
        {
          "internalType": "uint256",
          "name": "bookId",
          "type": "uint256"
        }
      ],
      "name": "borrowBook",
      "outputs": [
        {
          "internalType": "uint256",
          "name": "",
          "type": "uint256"
        }
      ],
      "payable": false,
      "stateMutability": "nonpayable",
      "type": "function"
    },
    {
      "constant": false,
      "inputs": [
        {
          "internalType": "uint256",
          "name": "bookId",
          "type": "uint256"
        }
      ],
      "name": "returnBook",
      "outputs": [
        {
          "internalType": "uint256",
          "name": "",
          "type": "uint256"
        }
      ],
      "payable": false,
      "stateMutability": "nonpayable",
      "type": "function"
    }
  ],
  "bytecode": "0x6080604052600860005534801561001557600080fd5b5060008090505b60005481116100885760006001600083815260200190815260200160002060010160006101000a81548173ffffffffffffffffffffffffffffffffffffffff021916908373ffffffffffffffffffffffffffffffffffffffff160217905550808060010191505061001c565b506103b7806100986000396000f3fe608060405234801561001057600080fd5b506004361061004c5760003560e01c806368744046146100515780637e490a9e146100c6578063b905ad7814610108578063ca5140c914610126575b600080fd5b61007d6004803603602081101561006757600080fd5b8101908080359060200190929190505050610168565b604051808381526020018273ffffffffffffffffffffffffffffffffffffffff1673ffffffffffffffffffffffffffffffffffffffff1681526020019250505060405180910390f35b6100f2600480360360208110156100dc57600080fd5b81019080803590602001909291905050506101ac565b6040518082815260200191505060405180910390f35b610110610294565b6040518082815260200191505060405180910390f35b6101526004803603602081101561013c57600080fd5b810190808035906020019092919050505061029a565b6040518082815260200191505060405180910390f35b60016020528060005260406000206000915090508060000154908060010160009054906101000a900473ffffffffffffffffffffffffffffffffffffffff16905082565b60008082101580156101bf575060005482105b6101c857600080fd5b600073ffffffffffffffffffffffffffffffffffffffff166001600084815260200190815260200160002060010160009054906101000a900473ffffffffffffffffffffffffffffffffffffffff1673ffffffffffffffffffffffffffffffffffffffff161461023757600080fd5b336001600084815260200190815260200160002060010160006101000a81548173ffffffffffffffffffffffffffffffffffffffff021916908373ffffffffffffffffffffffffffffffffffffffff160217905550819050919050565b60005481565b60008082101580156102ad575060005482105b6102b657600080fd5b3373ffffffffffffffffffffffffffffffffffffffff166001600084815260200190815260200160002060010160009054906101000a900473ffffffffffffffffffffffffffffffffffffffff1673ffffffffffffffffffffffffffffffffffffffff161461032457600080fd5b60006001600084815260200190815260200160002060010160006101000a81548173ffffffffffffffffffffffffffffffffffffffff021916908373ffffffffffffffffffffffffffffffffffffffff16021790555081905091905056fea265627a7a7231582008cb9bb5449fcb6099d1b5c8b3335c505d2b35ecab24ec2c751d45fa0fdd61dc64736f6c63430005100032",
  "source": "// SPDX-License-Identifier: MIT\r\npragma solidity >=0.5.0;\r\n\r\ncontract Library {\r\n    uint public bookCount = 8;\r\n\r\n    struct Book {\r\n        uint id;\r\n        address borrower;\r\n    }\r\n\r\n    mapping (uint => Book) public books;\r\n\r\n    function borrowBook(uint bookId) public returns (uint) {\r\n        require(bookId >= 0 && bookId < bookCount);\r\n        require(books[bookId].borrower == address(0));\r\n\r\n        books[bookId].borrower = msg.sender;\r\n\r\n        return bookId;\r\n    }\r\n\r\n    function returnBook(uint bookId) public returns (uint) {\r\n        require(bookId >= 0 && bookId < bookCount);\r\n        require(books[bookId].borrower == msg.sender);\r\n\r\n        books[bookId].borrower = address(0);\r\n\r\n        return bookId;\r\n    }\r\n\r\n    constructor() public  {\r\n        for (uint i = 0; i <= bookCount; i ++) {\r\n            books[i].borrower = address(0);\r\n        }\r\n    }\r\n/*\r\n    function getBorrowers() public view returns (address[16] memory) {\r\n        return adopters;\r\n    }*/\r\n/*\r\n    function createBook(string memory _content) public {\r\n        bookCount ++;\r\n        books[bookCount] = Book(bookCount, address(0));\r\n    }*/\r\n}",
  "sourcePath": "C:/Users/augus/OneDrive/Desktop/git/smart-contracts/contracts/Library.sol",
  "compiler": {
    "name": "solc",
    "version": "0.5.16+commit.9c3226ce.Emscripten.clang"
  },
  "schemaVersion": "3.3.3",
  "updatedAt": "2020-12-23T00:41:58.506Z",
  "networkType": "ethereum",
  "devdoc": {
    "methods": {}
  },
  "userdoc": {
    "methods": {}
  }
}