{
  "contractName": "Taxi",
  "abi": [
    {
      "inputs": [
        {
          "internalType": "address",
          "name": "_clientAddress",
          "type": "address"
        }
      ],
      "payable": false,
      "stateMutability": "nonpayable",
      "type": "constructor"
    },
    {
      "anonymous": false,
      "inputs": [
        {
          "indexed": false,
          "internalType": "uint256",
          "name": "id",
          "type": "uint256"
        },
        {
          "indexed": false,
          "internalType": "uint256",
          "name": "price",
          "type": "uint256"
        }
      ],
      "name": "OrderCompleted",
      "type": "event"
    },
    {
      "anonymous": false,
      "inputs": [
        {
          "indexed": false,
          "internalType": "address",
          "name": "client",
          "type": "address"
        },
        {
          "indexed": false,
          "internalType": "uint256",
          "name": "id",
          "type": "uint256"
        },
        {
          "indexed": false,
          "internalType": "uint256",
          "name": "price",
          "type": "uint256"
        }
      ],
      "name": "OrderConfirmed",
      "type": "event"
    },
    {
      "anonymous": false,
      "inputs": [
        {
          "indexed": false,
          "internalType": "address",
          "name": "client",
          "type": "address"
        },
        {
          "indexed": false,
          "internalType": "uint256",
          "name": "id",
          "type": "uint256"
        }
      ],
      "name": "OrderFinished",
      "type": "event"
    },
    {
      "anonymous": false,
      "inputs": [
        {
          "indexed": false,
          "internalType": "address",
          "name": "client",
          "type": "address"
        },
        {
          "indexed": false,
          "internalType": "uint256",
          "name": "id",
          "type": "uint256"
        },
        {
          "indexed": false,
          "internalType": "uint256",
          "name": "value",
          "type": "uint256"
        }
      ],
      "name": "OrderPaid",
      "type": "event"
    },
    {
      "anonymous": false,
      "inputs": [
        {
          "indexed": false,
          "internalType": "address",
          "name": "client",
          "type": "address"
        },
        {
          "indexed": false,
          "internalType": "uint256",
          "name": "id",
          "type": "uint256"
        },
        {
          "indexed": false,
          "internalType": "uint256",
          "name": "xDep",
          "type": "uint256"
        },
        {
          "indexed": false,
          "internalType": "uint256",
          "name": "yDep",
          "type": "uint256"
        },
        {
          "indexed": false,
          "internalType": "uint256",
          "name": "xDest",
          "type": "uint256"
        },
        {
          "indexed": false,
          "internalType": "uint256",
          "name": "yDest",
          "type": "uint256"
        }
      ],
      "name": "OrderRequested",
      "type": "event"
    },
    {
      "constant": true,
      "inputs": [],
      "name": "clientAddress",
      "outputs": [
        {
          "internalType": "address",
          "name": "",
          "type": "address"
        }
      ],
      "payable": false,
      "stateMutability": "view",
      "type": "function"
    },
    {
      "constant": true,
      "inputs": [],
      "name": "companyAddress",
      "outputs": [
        {
          "internalType": "address payable",
          "name": "",
          "type": "address"
        }
      ],
      "payable": false,
      "stateMutability": "view",
      "type": "function"
    },
    {
      "constant": true,
      "inputs": [],
      "name": "orderCount",
      "outputs": [
        {
          "internalType": "uint256",
          "name": "",
          "type": "uint256"
        }
      ],
      "payable": false,
      "stateMutability": "view",
      "type": "function"
    },
    {
      "constant": false,
      "inputs": [
        {
          "internalType": "uint256",
          "name": "xDep",
          "type": "uint256"
        },
        {
          "internalType": "uint256",
          "name": "yDep",
          "type": "uint256"
        },
        {
          "internalType": "uint256",
          "name": "xDest",
          "type": "uint256"
        },
        {
          "internalType": "uint256",
          "name": "yDest",
          "type": "uint256"
        }
      ],
      "name": "requestOrder",
      "outputs": [],
      "payable": false,
      "stateMutability": "nonpayable",
      "type": "function"
    },
    {
      "constant": false,
      "inputs": [
        {
          "internalType": "uint256",
          "name": "id",
          "type": "uint256"
        },
        {
          "internalType": "uint256",
          "name": "price",
          "type": "uint256"
        }
      ],
      "name": "confirmOrder",
      "outputs": [],
      "payable": false,
      "stateMutability": "nonpayable",
      "type": "function"
    },
    {
      "constant": false,
      "inputs": [
        {
          "internalType": "uint256",
          "name": "id",
          "type": "uint256"
        },
        {
          "internalType": "uint256",
          "name": "price",
          "type": "uint256"
        }
      ],
      "name": "payForOrder",
      "outputs": [],
      "payable": true,
      "stateMutability": "payable",
      "type": "function"
    },
    {
      "constant": false,
      "inputs": [
        {
          "internalType": "uint256",
          "name": "id",
          "type": "uint256"
        }
      ],
      "name": "finishOrder",
      "outputs": [],
      "payable": true,
      "stateMutability": "payable",
      "type": "function"
    }
  ],
  "bytecode": "0x6080604052600060025534801561001557600080fd5b506040516109b03803806109b08339818101604052602081101561003857600080fd5b8101908080519060200190929190505050336000806101000a81548173ffffffffffffffffffffffffffffffffffffffff021916908373ffffffffffffffffffffffffffffffffffffffff16021790555080600160006101000a81548173ffffffffffffffffffffffffffffffffffffffff021916908373ffffffffffffffffffffffffffffffffffffffff160217905550506108d6806100da6000396000f3fe6080604052600436106100705760003560e01c806353e1ead91161004e57806353e1ead9146101505780639d6f59ae146101a7578063f012be38146101df578063f38aa74d1461020d57610070565b80632453ffa8146100755780632c2ab5ea146100a05780634d169a7a146100f7575b600080fd5b34801561008157600080fd5b5061008a610252565b6040518082815260200191505060405180910390f35b3480156100ac57600080fd5b506100b5610258565b604051808273ffffffffffffffffffffffffffffffffffffffff1673ffffffffffffffffffffffffffffffffffffffff16815260200191505060405180910390f35b34801561010357600080fd5b5061014e6004803603608081101561011a57600080fd5b810190808035906020019092919080359060200190929190803590602001909291908035906020019092919050505061027e565b005b34801561015c57600080fd5b50610165610466565b604051808273ffffffffffffffffffffffffffffffffffffffff1673ffffffffffffffffffffffffffffffffffffffff16815260200191505060405180910390f35b6101dd600480360360408110156101bd57600080fd5b81019080803590602001909291908035906020019092919050505061048b565b005b61020b600480360360208110156101f557600080fd5b81019080803590602001909291905050506105b6565b005b34801561021957600080fd5b506102506004803603604081101561023057600080fd5b810190808035906020019092919080359060200190929190505050610748565b005b60025481565b600160009054906101000a900473ffffffffffffffffffffffffffffffffffffffff1681565b600160009054906101000a900473ffffffffffffffffffffffffffffffffffffffff1673ffffffffffffffffffffffffffffffffffffffff163373ffffffffffffffffffffffffffffffffffffffff16146102d857600080fd5b6002600081548092919060010191905055506040518061012001604052806002548152602001858152602001848152602001838152602001828152602001600081526020016000815260200160001515815260200160001515815250600360006002548152602001908152602001600020600082015181600001556020820151816001015560408201518160020155606082015181600301556080820151816004015560a0820151816005015560c0820151816006015560e08201518160070160006101000a81548160ff0219169083151502179055506101008201518160070160016101000a81548160ff0219169083151502179055509050507ff999f66e783a3479e4eaa6f1d5d66baaf11413070f250f2793973956a595e6a13360025486868686604051808773ffffffffffffffffffffffffffffffffffffffff1673ffffffffffffffffffffffffffffffffffffffff168152602001868152602001858152602001848152602001838152602001828152602001965050505050505060405180910390a150505050565b6000809054906101000a900473ffffffffffffffffffffffffffffffffffffffff1681565b600160009054906101000a900473ffffffffffffffffffffffffffffffffffffffff1673ffffffffffffffffffffffffffffffffffffffff163373ffffffffffffffffffffffffffffffffffffffff16146104e557600080fd5b60008210156104f357600080fd5b60025482111561050257600080fd5b3460036000848152602001908152602001600020600501541461052457600080fd5b3460036000848152602001908152602001600020600601819055507f726036d40acb594d676727863d2f4d7f374f7c64240052fa2fc578ecb1cc8c97338383604051808473ffffffffffffffffffffffffffffffffffffffff1673ffffffffffffffffffffffffffffffffffffffff168152602001838152602001828152602001935050505060405180910390a15050565b600160009054906101000a900473ffffffffffffffffffffffffffffffffffffffff1673ffffffffffffffffffffffffffffffffffffffff163373ffffffffffffffffffffffffffffffffffffffff161461061057600080fd5b600081101561061e57600080fd5b60025481111561062d57600080fd5b60016003600083815260200190815260200160002060070160016101000a81548160ff0219169083151502179055507fd46123190c75d47bd441e5aa404621fc196242fa341dfad6e3fa2fc3ba6580503382604051808373ffffffffffffffffffffffffffffffffffffffff1673ffffffffffffffffffffffffffffffffffffffff1681526020018281526020019250505060405180910390a16000809054906101000a900473ffffffffffffffffffffffffffffffffffffffff1673ffffffffffffffffffffffffffffffffffffffff166108fc60036000848152602001908152602001600020600601549081150290604051600060405180830381858888f19350505050158015610744573d6000803e3d6000fd5b5050565b6000809054906101000a900473ffffffffffffffffffffffffffffffffffffffff1673ffffffffffffffffffffffffffffffffffffffff163373ffffffffffffffffffffffffffffffffffffffff16146107a157600080fd5b60008210156107af57600080fd5b6002548211156107be57600080fd5b60016003600084815260200190815260200160002060070160006101000a81548160ff0219169083151502179055508060036000848152602001908152602001600020600501819055507ff5d5823be9fda7e38ff007300227f82b80a4f68ad492dc063b6e87bf8e7b6970600160009054906101000a900473ffffffffffffffffffffffffffffffffffffffff168383604051808473ffffffffffffffffffffffffffffffffffffffff1673ffffffffffffffffffffffffffffffffffffffff168152602001838152602001828152602001935050505060405180910390a1505056fea265627a7a723158202af2efcdbc573dea3e0d818ee2737b5a341a175f37319b5922c3996d8ea0f4a164736f6c63430005100032",
  "source": "// SPDX-License-Identifier: MIT\r\npragma solidity >=0.4.22 <0.8.0;\r\n\r\ncontract Taxi {\r\n  address payable public companyAddress;\r\n  address public clientAddress;\r\n\r\n  uint public orderCount = 0;\r\n\r\n  struct Order {\r\n    uint id;\r\n    uint xDep;\r\n    uint yDep;\r\n    uint xDext;\r\n    uint yDext;\r\n    uint price;\r\n    uint paid;\r\n    bool confirmed;\r\n    bool completed;\r\n  }\r\n\r\n  mapping (uint => Order) orders;\r\n\r\n  event OrderRequested(address client, uint id, uint xDep, uint yDep, uint xDest, uint yDest);\r\n  event OrderConfirmed(address client, uint id, uint price);\r\n  event OrderPaid(address client, uint id, uint value);\r\n  event OrderFinished(address client, uint id);\r\n\r\n  event OrderCompleted(\r\n    uint id,\r\n    uint price\r\n  );\r\n\r\n  constructor(address _clientAddress) public {\r\n    companyAddress = msg.sender;\r\n\r\n    clientAddress = _clientAddress;\r\n  }\r\n\r\n  function requestOrder(uint xDep, uint yDep, uint xDest, uint yDest) public {\r\n    require(msg.sender == clientAddress);\r\n\r\n    orderCount ++;\r\n    orders[orderCount] = Order(orderCount, xDep, yDep, xDest, yDest, 0, 0, false, false);\r\n    \r\n    emit OrderRequested(msg.sender, orderCount, xDep, yDep, xDest, yDest);\r\n  }\r\n\r\n  function confirmOrder(uint id, uint price) public {\r\n    require(msg.sender == companyAddress);\r\n    require(id >= 0);\r\n    require(id <= orderCount);\r\n\r\n    orders[id].confirmed = true;\r\n    orders[id].price = price;\r\n    emit OrderConfirmed(clientAddress, id, price);\r\n  }\r\n\r\n  function payForOrder(uint id, uint price) payable public {\r\n    require(msg.sender == clientAddress);\r\n    require(id >= 0);\r\n    require(id <= orderCount);\r\n    require(orders[id].price == msg.value);\r\n\r\n    orders[id].paid = msg.value;\r\n    emit OrderPaid(msg.sender, id, price);\r\n  }\r\n\r\n  function finishOrder(uint id) payable public {\r\n    require(msg.sender == clientAddress);\r\n    require(id >= 0);\r\n    require(id <= orderCount);\r\n\r\n    orders[id].completed = true;\r\n    emit OrderFinished(msg.sender, id);\r\n\r\n    companyAddress.transfer(orders[id].paid);\r\n  }\r\n}",
  "sourcePath": "C:/Users/augus/OneDrive/Desktop/git/smart-contracts/contracts/Taxi.sol",
  "compiler": {
    "name": "solc",
    "version": "0.5.16+commit.9c3226ce.Emscripten.clang"
  },
  "schemaVersion": "3.3.3",
  "updatedAt": "2020-12-23T00:09:08.622Z",
  "devdoc": {
    "methods": {}
  },
  "userdoc": {
    "methods": {}
  }
}